:020000040800F2
:10000000383000202D020008530200085502000875
:1000100000000000000000000000000000000000E0
:100020000000000000000000000000001D0B0008A0
:100030000000000000000000B3010008B90B000838
:100040005D020008000000005D0200085D0200087B
:100050005D0200085D0200085D0200085D02000804
:10006000000000005D0200085D0200085D0200085B
:100070005D0200085D0200085D020008000000004B
:100080005D0200085D0200085D0200085D020008D4
:100090005D0200085D0200085D0200085D020008C4
:1000A0005D0200085D0200085D0200085D020008B4
:1000B0003D0C00085D020008000000005D02000821
:1000C00000F002F800F04BF80CA030C808382418F3
:1000D0002D18A246671EAB4654465D46AC4201D180
:1000E00000F03DF87E460F3E0FCCB6460126334267
:1000F00000D0FB1AA246AB463343184788210000C4
:10010000A8210000103A02D378C878C1FAD8520763
:1001100001D330C830C101D504680C6070470000BD
:100120000023002400250026103A01D378C1FBD813
:10013000520700D330C100D50B60704710B5642959
:1001400002D100F0E7F810BD732902D100F051FB95
:1001500010BD002010BD1FB51FBD10B510BD00F0B3
:1001600079FB1146FFF7F7FF00F0D6FF00F091FB97
:1001700003B4FFF7F2FF03BC00F010FE084B196850
:100180000868203080F30988022080F31488BFF3C8
:100190006F8F3FBCAE4608BC04BC62B61847000077
:1001A00028000020EFF3108072B6704780F31088AB
:1001B0007047EFF309800E4B1A6820381060F0C0CA
:1001C00044464D4656465F46F0C008B572B601F04B
:1001D000C1FC62B60CBC116808681030F0C8A046BB
:1001E000A946B246BB4680F309882038F0C81847B4
:1001F0002800002070B505460C46164602E00FCCDC
:100200000FC5103E102EFAD2082E02D303CC03C520
:10021000083E042E07D301CC01C5361F03E0217828
:100220002970641C6D1C761EF9D270BD0F4880F3D6
:1002300008880F480168090E0E4A914205D10E4800
:100240000E4901600E480F4901600F4880470F4872
:100250000047FEE7FEE7FEE7FEE7FEE7FEE70000F9
:100260000B480C490C4A0D4B7047000038300020F9
:10027000040000001F0000001810024001000000F0
:100280000000014000000000DD0B0008C100000874
:10029000382A002038300020382C0020382C00204C
:1002A000704700000FB4054910B503AA029800F08A
:1002B000A5FA10BC08BC04B01847000000000020DC
:1002C00070B50C460546012A05D02878800600D571
:1002D000EA69002302E0012305E05B1C934202D29D
:1002E000E05C0028F9D1A869E618C01AA861286A5C
:1002F000C01828622846C046C04604E06A682078D4
:10030000A968641C9047B442F8D32846C046C0464A
:1003100070BD0000F7B5002575291068009914A676
:1003200011D0C046C046002802DA404211A608E0BB
:10033000009909688A0701D50FA602E0490704D58C
:100340000EA6012501E0C046C046009F00242437C8
:1003500004E000F067FA30313955641C0028F8D108
:100360002B4632462146009800F0C0F9FEBD000041
:10037000000000002D0000002B0000002000000005
:10038000F3B50446002081B020622046E16888472A
:10039000002872D0252802D06268A168ABE0594FCE
:1003A00000267F442046E16888472028054608DB70
:1003B000312D06D2781920380078002801D0064364
:1003C000F0E7B00701D5042086430020E06107462E
:1003D000A0612A2D0AD0284600F0D9FC002827D099
:1003E000B8000019303D0090856119E00298BA000C
:1003F000121902C8916102902046E1688847012FD6
:10040000054617D1E06900281FDA202086431CE04A
:1004100000980A2180694843009940193038886162
:100420002046E1688847054600F0B1FC0028EFD17E
:10043000012F0AD02E2D08D12046E16888470546B5
:10044000202006437F1C022FC3DBA069002803DAAB
:100450004042A06101200643F00701D010208643EE
:100460006C2D0BD0682D09D04C2D3CD06A2D38D086
:10047000742D38D07A2D36D016E040E0E1682F4652
:1004800020468847B842054609D16C2F29D0012063
:100490008002E168064320468847054604E06C2F49
:1004A0001DD0FF2001300643002D28D028464138BA
:1004B000192803D80120C0020643203520462660B3
:1004C0002946029A1646FFF739FE002810D0012867
:1004D0000BD0F61DF008C0000830029055E7402010
:1004E000E1E78020D5E70020D3E7361D02964CE7F0
:1004F00062682846A1689047206A401C44E7206A49
:10050000FEBD0000CC1E0000F8B5042A2CD38307E2
:1005100012D00B78491C0370401C521E83070BD06D
:100520000B78491C0370401C521E830704D00B78C3
:10053000491C0370401C521E8B079B0F05D0C91A23
:10054000DF002023DE1B08C90AE0FFF753FEF8BDD9
:100550001D4608C9FD401C46B4402C4310C0121F64
:10056000042AF5D2F308C91A521EF0D40B78491C9C
:100570000370401C521EEAD40B78491C0370401CC7
:10058000012AE4D409780170F8BD002203098B42E6
:100590002CD3030A8B4211D300239C464EE0034622
:1005A0000B433CD4002243088B4231D303098B42D6
:1005B0001CD3030A8B4201D394463FE0C3098B420C
:1005C00001D3CB01C01A524183098B4201D38B0165
:1005D000C01A524143098B4201D34B01C01A524108
:1005E00003098B4201D30B01C01A5241C3088B424D
:1005F00001D3CB00C01A524183088B4201D38B0038
:10060000C01A524143088B4201D34B00C01A5241D9
:10061000411A00D201465241104670475DE0CA0FB0
:1006200000D04942031000D34042534000229C4670
:1006300003098B422DD3030A8B4212D3FC2289017A
:1006400012BA030A8B420CD3890192118B4208D350
:10065000890192118B4204D389013AD0921100E0B2
:100660008909C3098B4201D3CB01C01A52418309C6
:100670008B4201D38B01C01A524143098B4201D3F3
:100680004B01C01A524103098B4201D30B01C01A1E
:100690005241C3088B4201D3CB00C01A5241830898
:1006A0008B4201D38B00C01A5241D9D243088B42EE
:1006B00001D34B00C01A5241411A00D20146634691
:1006C00052415B10104601D34042002B00D54942F5
:1006D000704763465B1000D3404201B50020C0461E
:1006E000C04602BD7047704770477047FFB504466B
:1006F0000D4681B0243000902168880604D5102270
:10070000E0699143216000E00120A84201DD471B20
:1007100000E000270498A1697A191018081AA0614E
:100720002078C00602D42046C046C046002608E015
:1007300003986268A168805D9047206A401C761C1F
:10074000206204988642F3DB2078C0060AD5204652
:10075000C046C04606E06268A16830209047206A23
:10076000401C206238467F1E0028F4DC07E0009819
:100770006268A168405D9047206A401C206228465C
:100780006D1E0028F3DC2046C046C04620780006D7
:1007900002D5022005B0F0BD0120FBE701694A1C2B
:1007A00002610878704700B58FB002910021059171
:1007B0000549019379440391114604906846FFF777
:1007C000DFFD0FB000BD0000E5FFFFFF10B543697E
:1007D000002B02D0C046C04601E0FFF771FD0120AA
:1007E00010BD1278014624310A7000224A7001229D
:1007F000ECE711680022D243E8E70000084B70B52F
:100800000D467B44FFF7CFFF0446284600F01EF854
:10081000002802D00020C04370BD204670BD0000FB
:100820000707000001468008081A02091018020A8A
:100830001018020C1018C008820012185200891AF1
:1008400001E0401C0A390A29FBD27047C0688021A8
:1008500008407047754600F025F8AE460500694629
:100860005346C008C000854618B020B5FFF7F8FC15
:1008700060BC00274908B6460026C0C5C0C5C0C533
:10088000C0C5C0C5C0C5C0C5C0C5403D49008D4636
:10089000704710B50446C046C0462046FFF768FCC6
:1008A00010BD000000487047D82900201CB500F09A
:1008B00077FA0020009003460190402202A10548EB
:1008C00001F03AFB1CBD00006C65645F7461736BE2
:1008D00000000000A1100008F0B50022012423460A
:1008E0000D6893401D409D422AD10D79012D01D004
:1008F000022D12D1876855000326AE40B7438760AA
:100900004E79AE4085682E43866085889D438580FC
:1009100085888B7993401D438580066855000323A5
:10092000AB409E4306600E790768AE403E430660CA
:10093000C6689E43C660CB79AB40C5682B43C36095
:10094000521C102ACBD3F0BD4B07DB0E9A40C908CE
:1009500010B589000818016A0F249C40A143016268
:10096000016A1143016210BD002A01D08161704704
:1009700001857047044A0029516901D0014300E014
:10098000814351617047000000100240044A002971
:10099000916901D0014300E08143916170470000FB
:1009A00000100240F8B5564D0446686800210C223C
:1009B000544E104005D0042803D0082803D00C283A
:1009C0001AD026601AE06968686803228902D20397
:1009D0000F0F1040BF1C00280AD0E86A0107090F5A
:1009E0003046491CFFF7D1FD78430146216005E000
:1009F000454839464143F9E7444820606868444F18
:100A00000006000F3B5C20680246DA4062606B68BB
:100A10005B055B0FFB5CDA40A2602B6BDB0501D44E
:100A20003C4B05E06B685B0401D4530800E093087D
:100A3000E3602B6B5F06384B03D4374F12372761C7
:100A400000E023612F6BFF0601D4666100E0606166
:100A50002F6BBF070ED02F6BBF07BF0F012F0BD01F
:100A60002F6BBF07BF0F022F08D02F6BFF43BF07AD
:100A700006D006E0A26104E0A06102E0A36100E00C
:100A8000A6612F6BBF03BF0F0FD02F6BBF03BF0F2C
:100A9000012F0CD02F6BBF03BF0F022F09D02F6B7C
:100AA000BF03BF0F032F06D006E0E26104E0E06160
:100AB00002E0E36100E0E6612F6B3F03BF0F0FD060
:100AC0002A6B1203920F012A0CD0286B0003800FAF
:100AD000022809D0286B0003800F032806D006E007
:100AE000226204E0206202E0236200E02662286BBA
:100AF000000602D405486062F8BD6162F8BD0000DE
:100B00000010024000127A0000093D00006CDC0277
:100B100018000020809FD500008000007047000072
:100B20001CB50021224801910091026801231B0499
:100B30001A4302605B000522120304681C40009403
:100B4000019C641C0194009C002C02D1019C9442E5
:100B5000F3D10268920328D501210091154A112191
:100B60001160416841604168416041687F22D20361
:100B700091434160416811221204114341600168B0
:100B8000012212061143016001688901FCD5416808
:100B9000890889004160416802221143416041682F
:100BA0000907890F0229FAD11CBD00911CBD000064
:100BB000001002400020024010B5FFF7F3FA04468F
:100BC00001F0F8F9002803D001200349000748602C
:100BD0002046FFF7EBFA10BD00ED00E010B5144819
:100BE00001680122114301604168124A11404160CD
:100BF0000168114A11400160016801229204914389
:100C0000016041683F22120491434160C16A0909B1
:100C10000901C162016BFF22543291430163416BB0
:100C200049084900416300218160FFF779FF10BD49
:100C3000001002400CB8FF08FFFFF6FE70B5064C2E
:100C4000064D2146284600F021F8002803D0214611
:100C5000284600F005F870BD05010500004400407D
:100C60000A0C01219140016270470029016802D0FD
:100C70000122114301E04908490001607047024622
:100C8000D26900200A4200D00120704730B50A0422
:100C9000130E0122144600258C40012B0ED0022B8E
:100CA0000ED08368090C2340C0698A401040002B95
:100CB00002D0002800D00125284630BD0368F1E7A6
:100CC0004368EFE730B5044600688BB00D46400836
:100CD000400020606068032109038843A96801433C
:100CE000616020681C49EA680840696811432A6904
:100CF000024311432160A068032109028843696906
:100D00000143A1606846FFF74DFE1448844201D1BB
:100D100006980AE01248844201D1079805E011487C
:100D2000844201D1089800E00298216809042968EA
:100D300000D54000FFF729FC2A6852088A4200D8F3
:100D4000401C2168090404D50107074A490F1040D7
:100D50000843A0810BB030BDF3E9FFFF003801402C
:100D60000044004000480040F0FF0000C905C90DE4
:100D70000185704730B47446641E2578641CAB420C
:100D800000D21D46635D5B00E31830BC1847303865
:100D90000A2801D2012070470020704770470000E8
:100DA00010B50021032000F023FF0D4C0028206027
:100DB00005D10B230B4A0CA112A0FFF773FA0022F6
:100DC0000421052000F01EFF6060002806D1054ABE
:100DD0001523173204A117A0FFF764FA10BD000015
:100DE0009400002038220008536F667477617265A2
:100DF0005C6D6573736167655F6D616E6167657278
:100E00002E6300004552524F523A2573202573201D
:100E100025643A206372656174652075736172742C
:100E20005F73656D6170686F7265206661696C0DD6
:100E30000A0000004552524F523A25732025732074
:100E400025643A20637265617465206C65645F7324
:100E5000797374656D5F72756E696E675F6D7367C8
:100E60005F7175657565206661696C0D0A0000002B
:100E700070B50546012188B04804FFF77BFD0121CC
:100E80008803FFF783FD0921CE0601223046FFF7D4
:100E90005BFD01220A213046FFF756FD0320400288
:100EA00006900220694608770320487700248C7753
:100EB000CC7706A93046FFF70FFD00950194029408
:100EC000039405940C20064C049069462046FFF7D5
:100ED000F9FE01212046FFF7C8FE08B070BD0000F2
:100EE0000038014010B5074805490068FFF74DFB81
:100EF0000549401E4861086905221043086110BD7C
:100F0000102700000400002000E000E070B5074D4D
:100F10000446C1B22846FFF729FF40212846FFF7C3
:100F2000AEFE0028F9D0204670BD00000038014018
:100F300010B50B4600280AD001280DD0022810D089
:100F4000032803D11146184600F06AF810BD114677
:100F5000184600F085F810BD1146184600F0BCF8A0
:100F600010BD1146184600F03BF810BD1CB501211C
:100F7000C804FFF7FFFC03208003009001206946AE
:100F800008710020887103224A71C8710148FFF777
:100F9000A3FC1CBD0008004810B5002100F06EFC49
:100FA00010BD10B5012100F069FC10BD00210170D9
:100FB0004180704713B569460979002909D0012994
:100FC0000AD0022904D16946C9880A22FFF7B0FF76
:100FD0001CBDFFF7E1FF1CBDFFF7E3FF1CBD0000D8
:100FE00070B50E4C064620890D46401C2081A07825
:100FF000C00710D00021022000F040FC29463046F6
:10100000FFF7C3FA2189884204D1A078401CA07060
:101010000020208170BD0121EDE700009C00002030
:1010200070B50E4C064660890D46401C6081E07824
:10103000C00710D00021032000F020FC29463046D4
:10104000FFF7A3FA6189884204D1E078401CE07080
:101050000020608170BD0121EDE700009C000020B0
:1010600070B50E4C0646A0880D46401CA080207826
:10107000C00710D00021002000F000FC29463046B7
:10108000FFF783FAA188884204D12078401C2070A1
:101090000020A08070BD0121EDE700009C00002031
:1010A00008B56846FFF782FF022168460170FF21FC
:1010B000F531084C418000231A466946206800F04B
:1010C000BCFD00200099FFF775FF642000F0A2FC32
:1010D000F1E700009800002070B50E4C0646E0884D
:1010E0000D46401CE0806078C00710D00021012030
:1010F00000F0C4FB29463046FFF747FAE1888842F2
:1011000004D16078401C60700020E08070BD012137
:10111000EDE700009C000020FFF7E4FEFFF726FF4C
:10112000E120C002FFF7A4FE0648016806A0FFF711
:10113000B9F80CA0FFF7B6F8FFF7B8FB00F0DCFC3D
:10114000FEE70000040000200D0A53797374656DFA
:10115000436F7265436C6F636B203D2025640D0AFD
:10116000000000000D0A626F61726420696E69748C
:101170002066696E69736865640D0A00F8B5134CE2
:101180000F46E66805462068001D00F08BFB681CD2
:1011900007D1002F05D021680D48091D00F0BAFBCA
:1011A000F8BD2068751945602168B54204D2A06B6E
:1011B000091D00F097FBF8BD606B091D00F092FB64
:1011C000A06A8542F7D2A562F8BD00002800002081
:1011D0009C010020F8B5054600F0A8FB294CA0684A
:1011E000401CA0602068284F002803D060690028B8
:1011F00027D02CE02560A068012828D100261420E3
:101200007043C01900F060FB761C052EF7D31E4812
:10121000643000F059FB1C48783000F055FB1A4848
:101220008C3000F051FB1848A03000F04DFB164800
:10123000B43000F049FB1448643060631430A0639C
:1012400005E02068E96AC06A884200D82560606AC3
:10125000401C6062E86A2169884200D9206114213B
:101260004843C019291D00F055FB00F06BFB606975
:10127000002806D02068E96AC06A884201D200F0DE
:1012800089FBF8BD28000020E800002010B500F020
:101290004DFB0E4C2068002815D10D4800F014FBC2
:1012A0000B48143000F010FB0948E0601430206156
:1012B00000220C210A2000F0A5FC2060002802D0AA
:1012C00004A100F073FB00F03DFB10BD64000020A2
:1012D000B0010020546D72510000000070B5114E35
:1012E000114C18E000F02EFC3068002817D000F0F8
:1012F00011FF00F01BFBF068C568281D00F0D2FA52
:10130000A068401EA0606068401E606000F01AFB8C
:10131000284600F056F860680028E3D170BD00F060
:10132000F9FEF8E7880100202800002010B5026CC3
:101330000C46002A0CD0C1688B18C36041688B42F0
:1013400001D2194601E00168C1602046FFF7DCF8D0
:1013500010BDF8B5856B174604460026026C002ABE
:1013600011D0002F19D0E068FFF7CEF8E168206CAB
:10137000091AE1602268914202D26168081AE060AD
:10138000022F17D019E02068002816D1606800F0FD
:1013900069FE0646002060600FE0A068FFF7B4F821
:1013A000216CA0684018A0606168884205D320685D
:1013B000A06002E0002D00D06D1E6D1CA5633046BC
:1013C000F8BD10B50446006B00F0C6FA204600F0E8
:1013D000C3FA10BD05210E48C902420705D0C01D41
:1013E000C0080B4AC000821A891A0A4A0023411811
:1013F00009C20839C908C900183A11604B600B606E
:101400000B1A0AC093600120C0075360D060704778
:10141000D801002088000020044CFFF75FFF2068FF
:101420000128FAD900F0B6FAF7E70000E80000203A
:10143000FFB581B00C9C9000236B001F1818C008EA
:101440000A9DC0000090002022180B5C203213750A
:101450000A5C002A02D0401C1028F5D3274600263B
:101460004037FE70052D00D30425E562A664201DDB
:10147000656400F034FA2046183000F030FA246138
:101480000520401B6462A061E6643E74049A0199E1
:10149000009800F0E3F920600B98002800D0046069
:1014A00005B0F0BD30B5114900E011460A6882422E
:1014B000FBD34B685C18844203D14068181848601D
:1014C000084643681C18944209D1084C103C246813
:1014D000A24209D052689A1842600A6812680260F3
:1014E000814200D0086030BD0460F9E78800002028
:1014F00070B5002441600B4D0061914206D8D11AAD
:101500008269914206D2011D286907E09A4203D2FE
:10151000994201D3012403E0011DE86800F0E2F9DB
:10152000204670BD6400002010B5044600F0FEF9AE
:10153000A06B002804D0002400F004FA204610BD5F
:101540000124F9E730B587B0244D3CE00498002829
:1015500039DB069C6069002802D0201D00F0A2F94A
:1015600002A800F097F8024604980300FFF702FC77
:101570000A0606062B202806062B202B0598A169B3
:10158000034641182046FFF7B3FF00281BD0616ACD
:1015900020468847E069012815D100200090059871
:1015A000A169002342181946204600F021FE0AE0F6
:1015B0000598A061811813462046FFF799FF02E0C5
:1015C000204600F0C9F900231A4604A9286800F053
:1015D00034FB0028BAD107B030BD00006400002001
:1015E000FEB50F46054600F0ADFA01A800F052F82E
:1015F00004460198002802D000F08CFDFEBD1C4E70
:10160000002F10D03069006800282FD00027291B38
:101610003A46306800F0DCF900F07CFD0028EDD19E
:1016200000F0B8F9FEBDA542F1D800F073FDF068F6
:101630002746C068C468201D00F034F9E06901281D
:1016400010D1A0692B4641193A462046FFF750FFBA
:10165000002807D000200346014600902A46204675
:1016600000F0C6FD616A20468847FEBD0127CEE72F
:10167000640000200648416B0968002905D0416BD1
:10168000C968C9684968816270470021C943FAE79F
:101690002800002070B5054600F086FC064E044682
:1016A000B068844203D200F009F8012000E0002075
:1016B00028602046B46070BD64000020F8B5144D69
:1016C0001EE0C068C4680668201D00F0EBF8616A7F
:1016D00020468847E069012812D1A0698019B042EC
:1016E00006D924616060211DE86800F0FBF807E07E
:1016F00000200346014600903246204600F078FD67
:10170000E86801680029DCD12969E9602861F8BD31
:101710006400002072B6FEE7074CE068016800290B
:1017200007D0C06800210068FFF75AFFFFF70AFFE3
:10173000F3E701210020F7E764000020F8B5044634
:1017400000F0F4F8254640350526AE5727462437E5
:101750000BE0606A00280AD0384600F0ADFC002893
:1017600001D000F067F9761E76B2002EF1DC00277A
:10177000FF436F7100F0E6F800F0D8F80426AE578A
:101780002046103000900BE0206900280AD0009815
:1017900000F092FC002801D000F04CF9761E76B2E1
:1017A000002EF1DC2F7100F0CDF8F8BDF8B505463C
:1017B000002700F0C7F9224E3068002801D1FFF75A
:1017C00009FEF068054237D1002D35D0083568078D
:1017D00004D06807400F0821081A4519002D2BD0A6
:1017E0007068854228D81648103001460C6801E020
:1017F00020460C466168A94202D221680029F7D12F
:1018000031688C4218D00768216801606068083729
:10181000411B102904D9601941606560FFF742FE41
:1018200061687068401A7060B268904200D2B0601F
:10183000F0680143002003C400F06CFC3846F8BD9A
:101840007800002004490868002803D00868826CEA
:10185000521C8264086870472800002010B50124DB
:10186000031F24061C601B1F1960191F024B0B600D
:10187000143940380A6010BD1517000810B501244E
:10188000A403074B002805D0012803D0022801D06B
:10189000032804D10A4621461846FFF765F810BD13
:1018A000000800484368826801699A60836842685A
:1018B0005A604A68824201D182684A60002202610D
:1018C0000868401E086070470146083100224160E8
:1018D000D243C16082600161002101607047002134
:1018E0000161704730B50B685A1C02D002460832BD
:1018F00002E0026904E02246546825689D42FAD954
:1019000053684B6099608A60516008610168491CA6
:10191000016030BD42684A6093688B60936859608B
:10192000916008610168491C0160704772B6044803
:101930000168491C0160BFF34F8FBFF36F8F704781
:101940009000002003490868401E086000D162B67C
:10195000704700009000002070B5002816D00446A3
:101960000B4D083C6068E96808420FD02268002AE5
:101970000CD18843606000F0E5F860686968401841
:1019800068602046FFF78EFD00F0C4FB70BD0000CC
:10199000780000200120044900074860BFF34F8F02
:1019A000BFF36F8F7047000000ED00E010B5074BEC
:1019B0000022D4001C59002C03D0521C082AF8D352
:1019C00010BDD2009950D118486010BDA800002069
:1019D00070B515460E460446FFF7A8FF2046403076
:1019E000042282560021521C00D101710522825628
:1019F000521C00D14171FFF7A5FFA06B002805D153
:101A000020462A463146243000F028F82046FFF7C9
:101A100095FE70BD10B5020009D000F093F80021CA
:101A20001046FFF7ABFB00F075FB002801D1FFF774
:101A3000B1FF10BD01490120C86170472800002096
:101A400010B50C46044909681831FFF74BFF012116
:101A50002046FFF793FB10BD2800002070B50D460F
:101A60000749144609681831FFF754FF002C01D0CC
:101A70000025ED4321462846FFF780FB70BD00009E
:101A80002800002070B5040025D0154DE06A2968B3
:101A9000C96A88421FD2A069002804DB2868052192
:101AA000C06A081AA061E06A14220E4E50436169B0
:101AB0008019814210D1201DFFF7F4FE2868C06A0A
:101AC000E0622969884200D92861142148438019BD
:101AD000211DFFF71FFF70BD2868C06AE06270BD5E
:101AE00028000020E800002002490A6A0260C96854
:101AF00041607047280000201CB50E48002401906A
:101B0000234680220CA100940D4800F015FA01280C
:101B10000ED100F04FFB01280AD172B60021054812
:101B2000C9432C38816201214161C46000F03AF858
:101B30001CBD00005400002049444C45000000003A
:101B4000191400080248016B491C0163704700002A
:101B50002800002010B51148016B002902D0012196
:101B6000C16110BD0021C16101690D4A00E0491E3B
:101B700014234B43D358002BF9D014234B439A180A
:101B8000536814465B6808345360A34201D15B6814
:101B90005360DA680260016110BD00002800002077
:101BA000E800002010B50D48016AFF22120411431D
:101BB0000162016A1202114301620A480849006881
:101BC000FEF7E3FC0849401E486107200861074909
:101BD00000200860FEF7D2FA002010BD00ED00E002
:101BE000102700000400002000E000E0900000202A
:101BF00010B50C460222002100F004F8002800D0A5
:101C0000846310BD70B50E00054612D07043483095
:101C1000FFF7CCFD04000AD0214648312046002EB3
:101C200009D0016006640121C56300F08DF82046EB
:101C300070BD0020EBE70060F4E7FFB5002583B03E
:101C400004462E46FFF772FEA76B002F26D0E568EC
:101C500020460499FFF76AFB0698002810D0E5603B
:101C6000606A002807D02046243000F025FA0028BA
:101C700001D0FFF78FFEFFF765FE012007B0F0BD32
:101C80007F1EA7632068002802D1FFF7DBFD60609C
:101C900020690028EFD020461030E6E7059800289C
:101CA00002D0002D03D006E0FFF74CFE27E0684687
:101CB000FFF71AFF0125FFF745FEFFF743FFFFF788
:101CC00035FE2046403004214156491C00D10671A2
:101CD00005214156491C00D14671FFF733FE05A985
:101CE000684600F005F9002820460AD0FFF726FDD7
:101CF00000F010FA2046FFF717FC0028A2D00020C1
:101D0000BCE7FFF711FC002818D02068002806D196
:101D1000FFF70CFE6068FFF7B5FEFFF713FE2046E5
:101D200024300599FFF78CFE2046FFF707FD00F0F1
:101D3000F1F9002886D1FFF72DFE83E72046FFF753
:101D4000FDFC00F0E7F97DE770B50D460446FFF7AE
:101D5000EDFD216CE06B4843216840186060002075
:101D6000A063A160E06B216C401E484321684018CD
:101D70000021E060C9432046403001714171303894
:101D8000002D09D0FFF7A0FD20462430FFF79CFD71
:101D9000FFF7D8FD012070BD21690029F8D000F0BF
:101DA0008BF90028F4D0FFF7F5FDF1E7FFB500252A
:101DB00083B01E4604462F46FFF7B8FDA16BE06BCB
:101DC000814207D3022E05D00598002817D0002D98
:101DD00018D01BE0324620460499FFF7BAFA616A30
:101DE000002903D02046243000F066F9002801D0F5
:101DF000FFF7D0FDFFF7A6FD012007B0F0BDFFF70C
:101E0000A1FD22E06846FFF76FFE0125FFF79AFD6E
:101E1000FFF798FEFFF78AFD204640300421415627
:101E2000491C00D1077105214156491C00D1477159
:101E3000FFF788FD05A9684600F05AF8002806D08B
:101E40002046FFF77BFC00F065F90020D5E7FFF79F
:101E50006DFDA06BE16B884210D1FFF773FD20464A
:101E600010300599FFF7ECFD2046FFF767FC00F006
:101E700051F90028A0D1FFF78DFD9DE7FFF762FD26
:101E80002046FFF75BFC00F045F995E7FFB581B010
:101E900016460446FEF786F90090A16BE06B81427E
:101EA00009D30498022806D000240098FEF77EF992
:101EB000204605B0F0BD2746403705257D57204612
:101EC000049A0299FFF745FA681C03D06D1C7D71D6
:101ED0000124EAE7606A0028FAD02046243000F0A6
:101EE000EBF80028F4D0002EF2D001203060EFE7AC
:101EF00070B50D460446FFF719FD0E4AD1682868F3
:101F0000431C0FD02368126A934202D062688A424F
:101F10000AD96268891A814206D2401A286020468E
:101F2000FFF7E2FD002400E00124FFF70BFD20464F
:101F300070BD000028000020FFB585B01646900057
:101F40000F9FFFF733FC05001AD05420FFF72EFC3B
:101F5000040012D0256300210E9803910197009090
:101F600002943246089B06990598FFF761FA2046CD
:101F7000FFF730F9012009B0F0BD2846FFF7ECFC6F
:101F80000020C043F7E7000006484169002904D05B
:101F9000006B002803D0002070470120704702200A
:101FA00070470000280000200148C068704700000A
:101FB00028000020F8B5294C0027206B002808D005
:101FC000A069401CA061E069002800D001273846C4
:101FD000F8BDE668761CE66008D1606BA16B6163B2
:101FE000A063206A401C2062FFF744FBA06A86427F
:101FF0000AD3606B0068002810D0606BC068C568A9
:10200000686886420DD2A06220681421C06A4843E5
:10201000134908580128D6D90127D4E70020C04326
:10202000F1E7281DFFF73EFCA86A002803D02846E8
:102030001830FFF737FCE86A2169884200D920612F
:102040001421484306494018291DFFF763FCE86A3C
:102050002168C96A8842CCD30127CAE7280000203A
:10206000E800002010B50021044600281ED0A06C16
:10207000401EA064636CE26A9A4217D0002815D112
:10208000201DFFF70FFC606C0521E062081AA061BB
:102090000749E06A0A69904200D90861142148435F
:1020A00004494018211DFFF735FC0121084610BDE9
:1020B00028000020E800002070B5C068C4682046F1
:1020C00018300646FFF7EEFB104D286B002802D0B3
:1020D00031460F480DE0201DFFF7E4FBE06A296957
:1020E000884200D928611421484309498C39401895
:1020F000211DFFF70FFCE06A2968C96A884202D9EE
:102100000120E86170BD002070BD000028000020A3
:1021100074010020F8B500252F46FFF707FC234C7B
:10212000206B401E2063206B00283BD1A168204E0D
:1021300000291DD136E0F068C56828461830FFF741
:10214000B1FB281DFFF7AEFBE86A2169884200D980
:1021500020611421484316498C394018291DFFF786
:10216000D9FBE86A2168C96A884201D30120E0618D
:1021700030680028DFD1002D01D0FFF77BFAA56978
:10218000002D09D00126FFF715FF002800D0E661D9
:102190006D1EF8D10020A061E069002802D001275F
:1021A000FFF7F8FBFFF7CEFB3846F8BD280000200C
:1021B000740100201CB50024FFF768F80848006887
:1021C00000280BD006490220091DC2010191009090
:1021D000002304A10548FFF7AFFE044620461CBDBE
:1021E00064000020546D72205376630019170008B4
:1021F000FEB5104C1D46034627680020089E002FA0
:102200000DD068460EC006290DDAFFF7BDFE022884
:1022100006D000231A4669462068FFF7C7FDFEBDB9
:1022200000233246F7E700232A4669463846FFF77F
:102230002DFEFEBD640000206372656174655F75EC
:10224000736172745F73656D6170686F726500634E
:1022500072656174655F6C65645F73797374656DD5
:102260005F72756E696E675F6D73675F71756575B7
:1022700065000400000800000000000000020001EA
:1022800000001000A422000800000020A8000000A8
:10229000040100084C230008A8000020902F000033
:1022A0002001000800000000006CDC0200000000BB
:1022B00000000000010203040607080900000000F6
:1022C00001020304010203040607080900000000DC
:1022D00000000000000000000000000000000000FE
:1022E00000000000000000000000000000000000EE
:1022F00000000000000000000000000000000000DE
:1023000000000000000000000000000000000000CD
:1023100000000000000000000000000000000000BD
:1023200000000000000000000000000000000000AD
:1023300000000000AAAAAAAA0000000000000000F5
:0C23400000000000000000000000000091
:04000005080000C12E
:00000001FF
